{
  "_format": "hh-sol-artifact-1",
  "contractName": "MessageV4",
  "sourceName": "contracts/Message.sol",
  "abi": [
    {
      "anonymous": false,
      "inputs": [
        {
          "indexed": false,
          "internalType": "address",
          "name": "previousAdmin",
          "type": "address"
        },
        {
          "indexed": false,
          "internalType": "address",
          "name": "newAdmin",
          "type": "address"
        }
      ],
      "name": "AdminChanged",
      "type": "event"
    },
    {
      "anonymous": false,
      "inputs": [
        {
          "indexed": true,
          "internalType": "address",
          "name": "beacon",
          "type": "address"
        }
      ],
      "name": "BeaconUpgraded",
      "type": "event"
    },
    {
      "anonymous": false,
      "inputs": [
        {
          "indexed": false,
          "internalType": "uint8",
          "name": "version",
          "type": "uint8"
        }
      ],
      "name": "Initialized",
      "type": "event"
    },
    {
      "anonymous": false,
      "inputs": [
        {
          "indexed": true,
          "internalType": "address",
          "name": "implementation",
          "type": "address"
        }
      ],
      "name": "Upgraded",
      "type": "event"
    },
    {
      "anonymous": false,
      "inputs": [
        {
          "indexed": false,
          "internalType": "string",
          "name": "_message",
          "type": "string"
        }
      ],
      "name": "newMessage",
      "type": "event"
    },
    {
      "anonymous": false,
      "inputs": [
        {
          "indexed": false,
          "internalType": "address",
          "name": "addy",
          "type": "address"
        },
        {
          "indexed": false,
          "internalType": "string",
          "name": "_message",
          "type": "string"
        }
      ],
      "name": "newMessages",
      "type": "event"
    },
    {
      "inputs": [
        {
          "internalType": "uint256",
          "name": "",
          "type": "uint256"
        }
      ],
      "name": "addresses",
      "outputs": [
        {
          "internalType": "address",
          "name": "",
          "type": "address"
        }
      ],
      "stateMutability": "view",
      "type": "function"
    },
    {
      "inputs": [
        {
          "internalType": "address",
          "name": "",
          "type": "address"
        }
      ],
      "name": "check",
      "outputs": [
        {
          "internalType": "bool",
          "name": "",
          "type": "bool"
        }
      ],
      "stateMutability": "view",
      "type": "function"
    },
    {
      "inputs": [],
      "name": "deleteAll",
      "outputs": [],
      "stateMutability": "nonpayable",
      "type": "function"
    },
    {
      "inputs": [],
      "name": "getAddresses",
      "outputs": [
        {
          "internalType": "address[]",
          "name": "",
          "type": "address[]"
        }
      ],
      "stateMutability": "view",
      "type": "function"
    },
    {
      "inputs": [],
      "name": "initialize",
      "outputs": [],
      "stateMutability": "nonpayable",
      "type": "function"
    },
    {
      "inputs": [
        {
          "internalType": "address",
          "name": "forwarder",
          "type": "address"
        }
      ],
      "name": "isTrustedForwarder",
      "outputs": [
        {
          "internalType": "bool",
          "name": "",
          "type": "bool"
        }
      ],
      "stateMutability": "view",
      "type": "function"
    },
    {
      "inputs": [],
      "name": "message",
      "outputs": [
        {
          "internalType": "string",
          "name": "",
          "type": "string"
        }
      ],
      "stateMutability": "view",
      "type": "function"
    },
    {
      "inputs": [],
      "name": "owner",
      "outputs": [
        {
          "internalType": "address",
          "name": "",
          "type": "address"
        }
      ],
      "stateMutability": "view",
      "type": "function"
    },
    {
      "inputs": [
        {
          "internalType": "string",
          "name": "_message",
          "type": "string"
        }
      ],
      "name": "postMessage",
      "outputs": [],
      "stateMutability": "nonpayable",
      "type": "function"
    },
    {
      "inputs": [
        {
          "internalType": "string",
          "name": "_message",
          "type": "string"
        }
      ],
      "name": "postMessages",
      "outputs": [],
      "stateMutability": "nonpayable",
      "type": "function"
    },
    {
      "inputs": [],
      "name": "proxiableUUID",
      "outputs": [
        {
          "internalType": "bytes32",
          "name": "",
          "type": "bytes32"
        }
      ],
      "stateMutability": "view",
      "type": "function"
    },
    {
      "inputs": [
        {
          "internalType": "address",
          "name": "_forwarder",
          "type": "address"
        }
      ],
      "name": "setForwarder",
      "outputs": [],
      "stateMutability": "nonpayable",
      "type": "function"
    },
    {
      "inputs": [],
      "name": "trustedForwarder",
      "outputs": [
        {
          "internalType": "address",
          "name": "",
          "type": "address"
        }
      ],
      "stateMutability": "view",
      "type": "function"
    },
    {
      "inputs": [
        {
          "internalType": "address",
          "name": "newImplementation",
          "type": "address"
        }
      ],
      "name": "upgradeTo",
      "outputs": [],
      "stateMutability": "nonpayable",
      "type": "function"
    },
    {
      "inputs": [
        {
          "internalType": "address",
          "name": "newImplementation",
          "type": "address"
        },
        {
          "internalType": "bytes",
          "name": "data",
          "type": "bytes"
        }
      ],
      "name": "upgradeToAndCall",
      "outputs": [],
      "stateMutability": "payable",
      "type": "function"
    },
    {
      "inputs": [
        {
          "internalType": "address",
          "name": "",
          "type": "address"
        }
      ],
      "name": "users",
      "outputs": [
        {
          "internalType": "string",
          "name": "",
          "type": "string"
        }
      ],
      "stateMutability": "view",
      "type": "function"
    },
    {
      "inputs": [],
      "name": "versionRecipient",
      "outputs": [
        {
          "internalType": "string",
          "name": "",
          "type": "string"
        }
      ],
      "stateMutability": "view",
      "type": "function"
    }
  ],
  "bytecode": "0x60a06040523073ffffffffffffffffffffffffffffffffffffffff1660809073ffffffffffffffffffffffffffffffffffffffff1681525034801561004357600080fd5b506080516127da61007b600039600081816108b00152818161093f01528181610bf201528181610c810152610d3101526127da6000f3fe6080604052600436106100fe5760003560e01c80637da0a87711610095578063a87430ba11610064578063a87430ba146102dc578063b9998a2414610319578063c23697a814610342578063e21f37ce1461037f578063edf26d9b146103aa576100fe565b80637da0a877146102445780638129fc1c1461026f5780638da5cb5b14610286578063a39fac12146102b1576100fe565b80634f1ef286116100d15780634f1ef2861461019757806352d1902d146101b3578063572b6c05146101de5780636630f88f1461021b576100fe565b8063252b6596146101035780633659cfe61461012c578063486ff0cd146101555780634c16440714610180575b600080fd5b34801561010f57600080fd5b5061012a60048036038101906101259190611bb5565b6103e7565b005b34801561013857600080fd5b50610153600480360381019061014e9190611c5c565b6108ae565b005b34801561016157600080fd5b5061016a610a37565b6040516101779190611d11565b60405180910390f35b34801561018c57600080fd5b50610195610ac5565b005b6101b160048036038101906101ac9190611dd4565b610bf0565b005b3480156101bf57600080fd5b506101c8610d2d565b6040516101d59190611e49565b60405180910390f35b3480156101ea57600080fd5b5061020560048036038101906102009190611c5c565b610de6565b6040516102129190611e7f565b60405180910390f35b34801561022757600080fd5b50610242600480360381019061023d9190611bb5565b610e3f565b005b34801561025057600080fd5b50610259610eb4565b6040516102669190611ea9565b60405180910390f35b34801561027b57600080fd5b50610284610edd565b005b34801561029257600080fd5b5061029b611181565b6040516102a89190611ea9565b60405180910390f35b3480156102bd57600080fd5b506102c66111a7565b6040516102d39190611f82565b60405180910390f35b3480156102e857600080fd5b5061030360048036038101906102fe9190611c5c565b611235565b6040516103109190611d11565b60405180910390f35b34801561032557600080fd5b50610340600480360381019061033b9190611c5c565b6112d5565b005b34801561034e57600080fd5b5061036960048036038101906103649190611c5c565b611342565b6040516103769190611e7f565b60405180910390f35b34801561038b57600080fd5b50610394611362565b6040516103a19190611d11565b60405180910390f35b3480156103b657600080fd5b506103d160048036038101906103cc9190611fda565b6113f0565b6040516103de9190611ea9565b60405180910390f35b80606690805190602001906103fd929190611997565b50606a600061040a61142f565b73ffffffffffffffffffffffffffffffffffffffff1673ffffffffffffffffffffffffffffffffffffffff16815260200190815260200160002060009054906101000a900460ff161561074657806068600061046461142f565b73ffffffffffffffffffffffffffffffffffffffff1673ffffffffffffffffffffffffffffffffffffffff16815260200190815260200160002090805190602001906104b1929190611997565b5060005b60698054905081101561055a576104ca61142f565b73ffffffffffffffffffffffffffffffffffffffff16606982815481106104f4576104f3612007565b5b9060005260206000200160009054906101000a900473ffffffffffffffffffffffffffffffffffffffff1673ffffffffffffffffffffffffffffffffffffffff1614156105475780606b8190555061055a565b808061055290612065565b9150506104b5565b506000606b5490505b600160698054905061057591906120ae565b81101561074057606981815481106105905761058f612007565b5b9060005260206000200160009054906101000a900473ffffffffffffffffffffffffffffffffffffffff16606c60006101000a81548173ffffffffffffffffffffffffffffffffffffffff021916908373ffffffffffffffffffffffffffffffffffffffff160217905550606960018261060a91906120e2565b8154811061061b5761061a612007565b5b9060005260206000200160009054906101000a900473ffffffffffffffffffffffffffffffffffffffff166069828154811061065a57610659612007565b5b9060005260206000200160006101000a81548173ffffffffffffffffffffffffffffffffffffffff021916908373ffffffffffffffffffffffffffffffffffffffff160217905550606c60009054906101000a900473ffffffffffffffffffffffffffffffffffffffff1660696001836106d491906120e2565b815481106106e5576106e4612007565b5b9060005260206000200160006101000a81548173ffffffffffffffffffffffffffffffffffffffff021916908373ffffffffffffffffffffffffffffffffffffffff160217905550808061073890612065565b915050610563565b5061086b565b806068600061075361142f565b73ffffffffffffffffffffffffffffffffffffffff1673ffffffffffffffffffffffffffffffffffffffff16815260200190815260200160002090805190602001906107a0929190611997565b506001606a60006107af61142f565b73ffffffffffffffffffffffffffffffffffffffff1673ffffffffffffffffffffffffffffffffffffffff16815260200190815260200160002060006101000a81548160ff021916908315150217905550606961080a61142f565b9080600181540180825580915050600190039060005260206000200160009091909190916101000a81548173ffffffffffffffffffffffffffffffffffffffff021916908373ffffffffffffffffffffffffffffffffffffffff1602179055505b7f6b1db8546d0fd8ddcae85552e21429e9038c6ac9adb5136f2537f1fe8642968f61089461142f565b826040516108a3929190612138565b60405180910390a150565b7f000000000000000000000000000000000000000000000000000000000000000073ffffffffffffffffffffffffffffffffffffffff163073ffffffffffffffffffffffffffffffffffffffff16141561093d576040517f08c379a0000000000000000000000000000000000000000000000000000000008152600401610934906121da565b60405180910390fd5b7f000000000000000000000000000000000000000000000000000000000000000073ffffffffffffffffffffffffffffffffffffffff1661097c611466565b73ffffffffffffffffffffffffffffffffffffffff16146109d2576040517f08c379a00000000000000000000000000000000000000000000000000000000081526004016109c99061226c565b60405180910390fd5b6109db816114bd565b610a3481600067ffffffffffffffff8111156109fa576109f9611a8a565b5b6040519080825280601f01601f191660200182016040528015610a2c5781602001600182028036833780820191505090505b506000611521565b50565b60678054610a44906122bb565b80601f0160208091040260200160405190810160405280929190818152602001828054610a70906122bb565b8015610abd5780601f10610a9257610100808354040283529160200191610abd565b820191906000526020600020905b815481529060010190602001808311610aa057829003601f168201915b505050505081565b606560009054906101000a900473ffffffffffffffffffffffffffffffffffffffff1673ffffffffffffffffffffffffffffffffffffffff16610b0661142f565b73ffffffffffffffffffffffffffffffffffffffff1614610b2657600080fd5b60005b606980549050811015610bdf576000606a600060698481548110610b5057610b4f612007565b5b9060005260206000200160009054906101000a900473ffffffffffffffffffffffffffffffffffffffff1673ffffffffffffffffffffffffffffffffffffffff1673ffffffffffffffffffffffffffffffffffffffff16815260200190815260200160002060006101000a81548160ff0219169083151502179055508080610bd790612065565b915050610b29565b5060696000610bee9190611a1d565b565b7f000000000000000000000000000000000000000000000000000000000000000073ffffffffffffffffffffffffffffffffffffffff163073ffffffffffffffffffffffffffffffffffffffff161415610c7f576040517f08c379a0000000000000000000000000000000000000000000000000000000008152600401610c76906121da565b60405180910390fd5b7f000000000000000000000000000000000000000000000000000000000000000073ffffffffffffffffffffffffffffffffffffffff16610cbe611466565b73ffffffffffffffffffffffffffffffffffffffff1614610d14576040517f08c379a0000000000000000000000000000000000000000000000000000000008152600401610d0b9061226c565b60405180910390fd5b610d1d826114bd565b610d2982826001611521565b5050565b60007f000000000000000000000000000000000000000000000000000000000000000073ffffffffffffffffffffffffffffffffffffffff163073ffffffffffffffffffffffffffffffffffffffff1614610dbd576040517f08c379a0000000000000000000000000000000000000000000000000000000008152600401610db49061235f565b60405180910390fd5b7f360894a13ba1a3210667c828492db98dca3e2076cc3735a920a3ca505d382bbc60001b905090565b60008060009054906101000a900473ffffffffffffffffffffffffffffffffffffffff1673ffffffffffffffffffffffffffffffffffffffff168273ffffffffffffffffffffffffffffffffffffffff16149050919050565b8060669080519060200190610e55929190611997565b508060686000610e6361142f565b73ffffffffffffffffffffffffffffffffffffffff1673ffffffffffffffffffffffffffffffffffffffff1681526020019081526020016000209080519060200190610eb0929190611997565b5050565b60008060009054906101000a900473ffffffffffffffffffffffffffffffffffffffff16905090565b60008060159054906101000a900460ff16159050808015610f1057506001600060149054906101000a900460ff1660ff16105b80610f3f5750610f1f3061169e565b158015610f3e57506001600060149054906101000a900460ff1660ff16145b5b610f7e576040517f08c379a0000000000000000000000000000000000000000000000000000000008152600401610f75906123f1565b60405180910390fd5b6001600060146101000a81548160ff021916908360ff1602179055508015610fbc576001600060156101000a81548160ff0219169083151502179055505b610fc461142f565b606560006101000a81548173ffffffffffffffffffffffffffffffffffffffff021916908373ffffffffffffffffffffffffffffffffffffffff1602179055506040518060400160405280600d81526020017f4669727374206d657373616765000000000000000000000000000000000000008152506066908051906020019061104f929190611997565b506040518060400160405280600d81526020017f4669727374206d65737361676500000000000000000000000000000000000000815250606860008073ffffffffffffffffffffffffffffffffffffffff1673ffffffffffffffffffffffffffffffffffffffff16815260200190815260200160002090805190602001906110d8929190611997565b506040518060400160405280600581526020017f322e302e3000000000000000000000000000000000000000000000000000000081525060679080519060200190611124929190611997565b50801561117e5760008060156101000a81548160ff0219169083151502179055507f7f26b83ff96e1f2b6a682f133852f6798a09c465da95921460cefb384740249860016040516111759190612463565b60405180910390a15b50565b606560009054906101000a900473ffffffffffffffffffffffffffffffffffffffff1681565b6060606980548060200260200160405190810160405280929190818152602001828054801561122b57602002820191906000526020600020905b8160009054906101000a900473ffffffffffffffffffffffffffffffffffffffff1673ffffffffffffffffffffffffffffffffffffffff16815260200190600101908083116111e1575b5050505050905090565b60686020528060005260406000206000915090508054611254906122bb565b80601f0160208091040260200160405190810160405280929190818152602001828054611280906122bb565b80156112cd5780601f106112a2576101008083540402835291602001916112cd565b820191906000526020600020905b8154815290600101906020018083116112b057829003601f168201915b505050505081565b606560009054906101000a900473ffffffffffffffffffffffffffffffffffffffff1673ffffffffffffffffffffffffffffffffffffffff1661131661142f565b73ffffffffffffffffffffffffffffffffffffffff161461133657600080fd5b61133f816116c1565b50565b606a6020528060005260406000206000915054906101000a900460ff1681565b6066805461136f906122bb565b80601f016020809104026020016040519081016040528092919081815260200182805461139b906122bb565b80156113e85780601f106113bd576101008083540402835291602001916113e8565b820191906000526020600020905b8154815290600101906020018083116113cb57829003601f168201915b505050505081565b6069818154811061140057600080fd5b906000526020600020016000915054906101000a900473ffffffffffffffffffffffffffffffffffffffff1681565b6000601460003690501015801561144b575061144a33610de6565b5b1561145f57601436033560601c9050611463565b3390505b90565b60006114947f360894a13ba1a3210667c828492db98dca3e2076cc3735a920a3ca505d382bbc60001b611704565b60000160009054906101000a900473ffffffffffffffffffffffffffffffffffffffff16905090565b606560009054906101000a900473ffffffffffffffffffffffffffffffffffffffff1673ffffffffffffffffffffffffffffffffffffffff166114fe61142f565b73ffffffffffffffffffffffffffffffffffffffff161461151e57600080fd5b50565b61154d7f4910fdfa16fed3260ed0e7147f7cc6da11a60208b5b9406d12a635614ffd914360001b61170e565b60000160009054906101000a900460ff16156115715761156c83611718565b611699565b8273ffffffffffffffffffffffffffffffffffffffff166352d1902d6040518163ffffffff1660e01b815260040160206040518083038186803b1580156115b757600080fd5b505afa9250505080156115e857506040513d601f19601f820116820180604052508101906115e591906124aa565b60015b611627576040517f08c379a000000000000000000000000000000000000000000000000000000000815260040161161e90612549565b60405180910390fd5b7f360894a13ba1a3210667c828492db98dca3e2076cc3735a920a3ca505d382bbc60001b811461168c576040517f08c379a0000000000000000000000000000000000000000000000000000000008152600401611683906125db565b60405180910390fd5b506116988383836117d1565b5b505050565b6000808273ffffffffffffffffffffffffffffffffffffffff163b119050919050565b806000806101000a81548173ffffffffffffffffffffffffffffffffffffffff021916908373ffffffffffffffffffffffffffffffffffffffff16021790555050565b6000819050919050565b6000819050919050565b6117218161169e565b611760576040517f08c379a00000000000000000000000000000000000000000000000000000000081526004016117579061266d565b60405180910390fd5b8061178d7f360894a13ba1a3210667c828492db98dca3e2076cc3735a920a3ca505d382bbc60001b611704565b60000160006101000a81548173ffffffffffffffffffffffffffffffffffffffff021916908373ffffffffffffffffffffffffffffffffffffffff16021790555050565b6117da836117fd565b6000825111806117e75750805b156117f8576117f6838361184c565b505b505050565b61180681611718565b8073ffffffffffffffffffffffffffffffffffffffff167fbc7cd75a20ee27fd9adebab32041f755214dbc6bffa90cc0225b39da2e5c2d3b60405160405180910390a250565b60606118578361169e565b611896576040517f08c379a000000000000000000000000000000000000000000000000000000000815260040161188d906126ff565b60405180910390fd5b6000808473ffffffffffffffffffffffffffffffffffffffff16846040516118be9190612766565b600060405180830381855af49150503d80600081146118f9576040519150601f19603f3d011682016040523d82523d6000602084013e6118fe565b606091505b5091509150611926828260405180606001604052806027815260200161277e60279139611930565b9250505092915050565b6060831561194057829050611990565b6000835111156119535782518084602001fd5b816040517f08c379a00000000000000000000000000000000000000000000000000000000081526004016119879190611d11565b60405180910390fd5b9392505050565b8280546119a3906122bb565b90600052602060002090601f0160209004810192826119c55760008555611a0c565b82601f106119de57805160ff1916838001178555611a0c565b82800160010185558215611a0c579182015b82811115611a0b5782518255916020019190600101906119f0565b5b509050611a199190611a3e565b5090565b5080546000825590600052602060002090810190611a3b9190611a3e565b50565b5b80821115611a57576000816000905550600101611a3f565b5090565b6000604051905090565b600080fd5b600080fd5b600080fd5b600080fd5b6000601f19601f8301169050919050565b7f4e487b7100000000000000000000000000000000000000000000000000000000600052604160045260246000fd5b611ac282611a79565b810181811067ffffffffffffffff82111715611ae157611ae0611a8a565b5b80604052505050565b6000611af4611a5b565b9050611b008282611ab9565b919050565b600067ffffffffffffffff821115611b2057611b1f611a8a565b5b611b2982611a79565b9050602081019050919050565b82818337600083830152505050565b6000611b58611b5384611b05565b611aea565b905082815260208101848484011115611b7457611b73611a74565b5b611b7f848285611b36565b509392505050565b600082601f830112611b9c57611b9b611a6f565b5b8135611bac848260208601611b45565b91505092915050565b600060208284031215611bcb57611bca611a65565b5b600082013567ffffffffffffffff811115611be957611be8611a6a565b5b611bf584828501611b87565b91505092915050565b600073ffffffffffffffffffffffffffffffffffffffff82169050919050565b6000611c2982611bfe565b9050919050565b611c3981611c1e565b8114611c4457600080fd5b50565b600081359050611c5681611c30565b92915050565b600060208284031215611c7257611c71611a65565b5b6000611c8084828501611c47565b91505092915050565b600081519050919050565b600082825260208201905092915050565b60005b83811015611cc3578082015181840152602081019050611ca8565b83811115611cd2576000848401525b50505050565b6000611ce382611c89565b611ced8185611c94565b9350611cfd818560208601611ca5565b611d0681611a79565b840191505092915050565b60006020820190508181036000830152611d2b8184611cd8565b905092915050565b600067ffffffffffffffff821115611d4e57611d4d611a8a565b5b611d5782611a79565b9050602081019050919050565b6000611d77611d7284611d33565b611aea565b905082815260208101848484011115611d9357611d92611a74565b5b611d9e848285611b36565b509392505050565b600082601f830112611dbb57611dba611a6f565b5b8135611dcb848260208601611d64565b91505092915050565b60008060408385031215611deb57611dea611a65565b5b6000611df985828601611c47565b925050602083013567ffffffffffffffff811115611e1a57611e19611a6a565b5b611e2685828601611da6565b9150509250929050565b6000819050919050565b611e4381611e30565b82525050565b6000602082019050611e5e6000830184611e3a565b92915050565b60008115159050919050565b611e7981611e64565b82525050565b6000602082019050611e946000830184611e70565b92915050565b611ea381611c1e565b82525050565b6000602082019050611ebe6000830184611e9a565b92915050565b600081519050919050565b600082825260208201905092915050565b6000819050602082019050919050565b611ef981611c1e565b82525050565b6000611f0b8383611ef0565b60208301905092915050565b6000602082019050919050565b6000611f2f82611ec4565b611f398185611ecf565b9350611f4483611ee0565b8060005b83811015611f75578151611f5c8882611eff565b9750611f6783611f17565b925050600181019050611f48565b5085935050505092915050565b60006020820190508181036000830152611f9c8184611f24565b905092915050565b6000819050919050565b611fb781611fa4565b8114611fc257600080fd5b50565b600081359050611fd481611fae565b92915050565b600060208284031215611ff057611fef611a65565b5b6000611ffe84828501611fc5565b91505092915050565b7f4e487b7100000000000000000000000000000000000000000000000000000000600052603260045260246000fd5b7f4e487b7100000000000000000000000000000000000000000000000000000000600052601160045260246000fd5b600061207082611fa4565b91507fffffffffffffffffffffffffffffffffffffffffffffffffffffffffffffffff8214156120a3576120a2612036565b5b600182019050919050565b60006120b982611fa4565b91506120c483611fa4565b9250828210156120d7576120d6612036565b5b828203905092915050565b60006120ed82611fa4565b91506120f883611fa4565b9250827fffffffffffffffffffffffffffffffffffffffffffffffffffffffffffffffff0382111561212d5761212c612036565b5b828201905092915050565b600060408201905061214d6000830185611e9a565b818103602083015261215f8184611cd8565b90509392505050565b7f46756e6374696f6e206d7573742062652063616c6c6564207468726f7567682060008201527f64656c656761746563616c6c0000000000000000000000000000000000000000602082015250565b60006121c4602c83611c94565b91506121cf82612168565b604082019050919050565b600060208201905081810360008301526121f3816121b7565b9050919050565b7f46756e6374696f6e206d7573742062652063616c6c6564207468726f7567682060008201527f6163746976652070726f78790000000000000000000000000000000000000000602082015250565b6000612256602c83611c94565b9150612261826121fa565b604082019050919050565b6000602082019050818103600083015261228581612249565b9050919050565b7f4e487b7100000000000000000000000000000000000000000000000000000000600052602260045260246000fd5b600060028204905060018216806122d357607f821691505b602082108114156122e7576122e661228c565b5b50919050565b7f555550535570677261646561626c653a206d757374206e6f742062652063616c60008201527f6c6564207468726f7567682064656c656761746563616c6c0000000000000000602082015250565b6000612349603883611c94565b9150612354826122ed565b604082019050919050565b600060208201905081810360008301526123788161233c565b9050919050565b7f496e697469616c697a61626c653a20636f6e747261637420697320616c72656160008201527f647920696e697469616c697a6564000000000000000000000000000000000000602082015250565b60006123db602e83611c94565b91506123e68261237f565b604082019050919050565b6000602082019050818103600083015261240a816123ce565b9050919050565b6000819050919050565b600060ff82169050919050565b6000819050919050565b600061244d61244861244384612411565b612428565b61241b565b9050919050565b61245d81612432565b82525050565b60006020820190506124786000830184612454565b92915050565b61248781611e30565b811461249257600080fd5b50565b6000815190506124a48161247e565b92915050565b6000602082840312156124c0576124bf611a65565b5b60006124ce84828501612495565b91505092915050565b7f45524331393637557067726164653a206e657720696d706c656d656e7461746960008201527f6f6e206973206e6f742055555053000000000000000000000000000000000000602082015250565b6000612533602e83611c94565b915061253e826124d7565b604082019050919050565b6000602082019050818103600083015261256281612526565b9050919050565b7f45524331393637557067726164653a20756e737570706f727465642070726f7860008201527f6961626c65555549440000000000000000000000000000000000000000000000602082015250565b60006125c5602983611c94565b91506125d082612569565b604082019050919050565b600060208201905081810360008301526125f4816125b8565b9050919050565b7f455243313936373a206e657720696d706c656d656e746174696f6e206973206e60008201527f6f74206120636f6e747261637400000000000000000000000000000000000000602082015250565b6000612657602d83611c94565b9150612662826125fb565b604082019050919050565b600060208201905081810360008301526126868161264a565b9050919050565b7f416464726573733a2064656c65676174652063616c6c20746f206e6f6e2d636f60008201527f6e74726163740000000000000000000000000000000000000000000000000000602082015250565b60006126e9602683611c94565b91506126f48261268d565b604082019050919050565b60006020820190508181036000830152612718816126dc565b9050919050565b600081519050919050565b600081905092915050565b60006127408261271f565b61274a818561272a565b935061275a818560208601611ca5565b80840191505092915050565b60006127728284612735565b91508190509291505056fe416464726573733a206c6f772d6c6576656c2064656c65676174652063616c6c206661696c6564a2646970667358221220b82cc9b170f3676c747569331fd7a711110278da8ed8b51597b99f7e4377ab5d64736f6c63430008090033",
  "linkReferences": {},
  "deployedLinkReferences": {}
}